{
  "abi": [
    {
      "inputs": [
        {
          "internalType": "address",
          "name": "_feeTo",
          "type": "address"
        },
        {
          "internalType": "address",
          "name": "_tokenURIGenerator",
          "type": "address"
        }
      ],
      "stateMutability": "nonpayable",
      "type": "constructor"
    },
    {
      "inputs": [
        {
          "internalType": "address",
          "name": "accessor",
          "type": "address"
        },
        {
          "internalType": "address",
          "name": "permissioned",
          "type": "address"
        }
      ],
      "name": "AccessControlViolation",
      "type": "error"
    },
    {
      "inputs": [],
      "name": "AmountWrittenCannotBeZero",
      "type": "error"
    },
    {
      "inputs": [
        {
          "internalType": "uint256",
          "name": "claimId",
          "type": "uint256"
        }
      ],
      "name": "CallerDoesNotOwnClaimId",
      "type": "error"
    },
    {
      "inputs": [
        {
          "internalType": "uint256",
          "name": "optionId",
          "type": "uint256"
        },
        {
          "internalType": "uint112",
          "name": "amount",
          "type": "uint112"
        }
      ],
      "name": "CallerHoldsInsufficientOptions",
      "type": "error"
    },
    {
      "inputs": [
        {
          "internalType": "uint256",
          "name": "claimId",
          "type": "uint256"
        },
        {
          "internalType": "uint40",
          "name": "expiry",
          "type": "uint40"
        }
      ],
      "name": "ClaimTooSoon",
      "type": "error"
    },
    {
      "inputs": [
        {
          "internalType": "uint256",
          "name": "optionId",
          "type": "uint256"
        },
        {
          "internalType": "uint40",
          "name": "exercise",
          "type": "uint40"
        }
      ],
      "name": "ExerciseTooEarly",
      "type": "error"
    },
    {
      "inputs": [
        {
          "internalType": "uint40",
          "name": "exercise",
          "type": "uint40"
        }
      ],
      "name": "ExerciseWindowTooShort",
      "type": "error"
    },
    {
      "inputs": [
        {
          "internalType": "uint256",
          "name": "optionId",
          "type": "uint256"
        },
        {
          "internalType": "uint40",
          "name": "expiry",
          "type": "uint40"
        }
      ],
      "name": "ExpiredOption",
      "type": "error"
    },
    {
      "inputs": [
        {
          "internalType": "uint40",
          "name": "expiry",
          "type": "uint40"
        }
      ],
      "name": "ExpiryWindowTooShort",
      "type": "error"
    },
    {
      "inputs": [
        {
          "internalType": "address",
          "name": "input",
          "type": "address"
        }
      ],
      "name": "InvalidAddress",
      "type": "error"
    },
    {
      "inputs": [
        {
          "internalType": "address",
          "name": "asset1",
          "type": "address"
        },
        {
          "internalType": "address",
          "name": "asset2",
          "type": "address"
        }
      ],
      "name": "InvalidAssets",
      "type": "error"
    },
    {
      "inputs": [
        {
          "internalType": "uint256",
          "name": "token",
          "type": "uint256"
        }
      ],
      "name": "InvalidClaim",
      "type": "error"
    },
    {
      "inputs": [
        {
          "internalType": "uint256",
          "name": "token",
          "type": "uint256"
        }
      ],
      "name": "InvalidOption",
      "type": "error"
    },
    {
      "inputs": [
        {
          "internalType": "uint256",
          "name": "optionId",
          "type": "uint256"
        }
      ],
      "name": "OptionsTypeExists",
      "type": "error"
    },
    {
      "inputs": [
        {
          "internalType": "uint256",
          "name": "token",
          "type": "uint256"
        }
      ],
      "name": "TokenNotFound",
      "type": "error"
    },
    {
      "anonymous": false,
      "inputs": [
        {
          "indexed": true,
          "internalType": "address",
          "name": "owner",
          "type": "address"
        },
        {
          "indexed": true,
          "internalType": "address",
          "name": "operator",
          "type": "address"
        },
        {
          "indexed": false,
          "internalType": "bool",
          "name": "approved",
          "type": "bool"
        }
      ],
      "name": "ApprovalForAll",
      "type": "event"
    },
    {
      "anonymous": false,
      "inputs": [
        {
          "indexed": true,
          "internalType": "uint256",
          "name": "claimId",
          "type": "uint256"
        },
        {
          "indexed": true,
          "internalType": "uint256",
          "name": "optionId",
          "type": "uint256"
        },
        {
          "indexed": true,
          "internalType": "address",
          "name": "redeemer",
          "type": "address"
        },
        {
          "indexed": false,
          "internalType": "uint256",
          "name": "exerciseAmountRedeemed",
          "type": "uint256"
        },
        {
          "indexed": false,
          "internalType": "uint256",
          "name": "underlyingAmountRedeemed",
          "type": "uint256"
        }
      ],
      "name": "ClaimRedeemed",
      "type": "event"
    },
    {
      "anonymous": false,
      "inputs": [
        {
          "indexed": true,
          "internalType": "uint256",
          "name": "optionId",
          "type": "uint256"
        },
        {
          "indexed": true,
          "internalType": "address",
          "name": "asset",
          "type": "address"
        },
        {
          "indexed": true,
          "internalType": "address",
          "name": "payer",
          "type": "address"
        },
        {
          "indexed": false,
          "internalType": "uint256",
          "name": "amount",
          "type": "uint256"
        }
      ],
      "name": "FeeAccrued",
      "type": "event"
    },
    {
      "anonymous": false,
      "inputs": [
        {
          "indexed": true,
          "internalType": "address",
          "name": "asset",
          "type": "address"
        },
        {
          "indexed": true,
          "internalType": "address",
          "name": "feeTo",
          "type": "address"
        },
        {
          "indexed": false,
          "internalType": "uint256",
          "name": "amount",
          "type": "uint256"
        }
      ],
      "name": "FeeSwept",
      "type": "event"
    },
    {
      "anonymous": false,
      "inputs": [
        {
          "indexed": false,
          "internalType": "address",
          "name": "feeTo",
          "type": "address"
        },
        {
          "indexed": false,
          "internalType": "bool",
          "name": "enabled",
          "type": "bool"
        }
      ],
      "name": "FeeSwitchUpdated",
      "type": "event"
    },
    {
      "anonymous": false,
      "inputs": [
        {
          "indexed": true,
          "internalType": "address",
          "name": "newFeeTo",
          "type": "address"
        }
      ],
      "name": "FeeToUpdated",
      "type": "event"
    },
    {
      "anonymous": false,
      "inputs": [
        {
          "indexed": false,
          "internalType": "uint256",
          "name": "optionId",
          "type": "uint256"
        },
        {
          "indexed": true,
          "internalType": "address",
          "name": "exerciseAsset",
          "type": "address"
        },
        {
          "indexed": true,
          "internalType": "address",
          "name": "underlyingAsset",
          "type": "address"
        },
        {
          "indexed": false,
          "internalType": "uint96",
          "name": "exerciseAmount",
          "type": "uint96"
        },
        {
          "indexed": false,
          "internalType": "uint96",
          "name": "underlyingAmount",
          "type": "uint96"
        },
        {
          "indexed": false,
          "internalType": "uint40",
          "name": "exerciseTimestamp",
          "type": "uint40"
        },
        {
          "indexed": true,
          "internalType": "uint40",
          "name": "expiryTimestamp",
          "type": "uint40"
        }
      ],
      "name": "NewOptionType",
      "type": "event"
    },
    {
      "anonymous": false,
      "inputs": [
        {
          "indexed": true,
          "internalType": "uint256",
          "name": "optionId",
          "type": "uint256"
        },
        {
          "indexed": true,
          "internalType": "address",
          "name": "exerciser",
          "type": "address"
        },
        {
          "indexed": false,
          "internalType": "uint112",
          "name": "amount",
          "type": "uint112"
        }
      ],
      "name": "OptionsExercised",
      "type": "event"
    },
    {
      "anonymous": false,
      "inputs": [
        {
          "indexed": true,
          "internalType": "uint256",
          "name": "optionId",
          "type": "uint256"
        },
        {
          "indexed": true,
          "internalType": "address",
          "name": "writer",
          "type": "address"
        },
        {
          "indexed": true,
          "internalType": "uint256",
          "name": "claimId",
          "type": "uint256"
        },
        {
          "indexed": false,
          "internalType": "uint112",
          "name": "amount",
          "type": "uint112"
        }
      ],
      "name": "OptionsWritten",
      "type": "event"
    },
    {
      "anonymous": false,
      "inputs": [
        {
          "indexed": true,
          "internalType": "address",
          "name": "newTokenURIGenerator",
          "type": "address"
        }
      ],
      "name": "TokenURIGeneratorUpdated",
      "type": "event"
    },
    {
      "anonymous": false,
      "inputs": [
        {
          "indexed": true,
          "internalType": "address",
          "name": "operator",
          "type": "address"
        },
        {
          "indexed": true,
          "internalType": "address",
          "name": "from",
          "type": "address"
        },
        {
          "indexed": true,
          "internalType": "address",
          "name": "to",
          "type": "address"
        },
        {
          "indexed": false,
          "internalType": "uint256[]",
          "name": "ids",
          "type": "uint256[]"
        },
        {
          "indexed": false,
          "internalType": "uint256[]",
          "name": "amounts",
          "type": "uint256[]"
        }
      ],
      "name": "TransferBatch",
      "type": "event"
    },
    {
      "anonymous": false,
      "inputs": [
        {
          "indexed": true,
          "internalType": "address",
          "name": "operator",
          "type": "address"
        },
        {
          "indexed": true,
          "internalType": "address",
          "name": "from",
          "type": "address"
        },
        {
          "indexed": true,
          "internalType": "address",
          "name": "to",
          "type": "address"
        },
        {
          "indexed": false,
          "internalType": "uint256",
          "name": "id",
          "type": "uint256"
        },
        {
          "indexed": false,
          "internalType": "uint256",
          "name": "amount",
          "type": "uint256"
        }
      ],
      "name": "TransferSingle",
      "type": "event"
    },
    {
      "anonymous": false,
      "inputs": [
        {
          "indexed": false,
          "internalType": "string",
          "name": "value",
          "type": "string"
        },
        {
          "indexed": true,
          "internalType": "uint256",
          "name": "id",
          "type": "uint256"
        }
      ],
      "name": "URI",
      "type": "event"
    },
    {
      "inputs": [],
      "name": "acceptFeeTo",
      "outputs": [],
      "stateMutability": "nonpayable",
      "type": "function"
    },
    {
      "inputs": [
        {
          "internalType": "address",
          "name": "",
          "type": "address"
        },
        {
          "internalType": "uint256",
          "name": "",
          "type": "uint256"
        }
      ],
      "name": "balanceOf",
      "outputs": [
        {
          "internalType": "uint256",
          "name": "",
          "type": "uint256"
        }
      ],
      "stateMutability": "view",
      "type": "function"
    },
    {
      "inputs": [
        {
          "internalType": "address[]",
          "name": "owners",
          "type": "address[]"
        },
        {
          "internalType": "uint256[]",
          "name": "ids",
          "type": "uint256[]"
        }
      ],
      "name": "balanceOfBatch",
      "outputs": [
        {
          "internalType": "uint256[]",
          "name": "balances",
          "type": "uint256[]"
        }
      ],
      "stateMutability": "view",
      "type": "function"
    },
    {
      "inputs": [
        {
          "internalType": "uint256",
          "name": "claimId",
          "type": "uint256"
        }
      ],
      "name": "claim",
      "outputs": [
        {
          "components": [
            {
              "internalType": "uint256",
              "name": "amountWritten",
              "type": "uint256"
            },
            {
              "internalType": "uint256",
              "name": "amountExercised",
              "type": "uint256"
            },
            {
              "internalType": "uint256",
              "name": "optionId",
              "type": "uint256"
            }
          ],
          "internalType": "struct IOptionSettlementEngine.Claim",
          "name": "claimInfo",
          "type": "tuple"
        }
      ],
      "stateMutability": "view",
      "type": "function"
    },
    {
      "inputs": [
        {
          "internalType": "uint256",
          "name": "optionId",
          "type": "uint256"
        },
        {
          "internalType": "uint112",
          "name": "amount",
          "type": "uint112"
        }
      ],
      "name": "exercise",
      "outputs": [],
      "stateMutability": "nonpayable",
      "type": "function"
    },
    {
      "inputs": [
        {
          "internalType": "address",
          "name": "",
          "type": "address"
        }
      ],
      "name": "feeBalance",
      "outputs": [
        {
          "internalType": "uint256",
          "name": "",
          "type": "uint256"
        }
      ],
      "stateMutability": "view",
      "type": "function"
    },
    {
      "inputs": [],
      "name": "feeBps",
      "outputs": [
        {
          "internalType": "uint8",
          "name": "",
          "type": "uint8"
        }
      ],
      "stateMutability": "view",
      "type": "function"
    },
    {
      "inputs": [],
      "name": "feeTo",
      "outputs": [
        {
          "internalType": "address",
          "name": "",
          "type": "address"
        }
      ],
      "stateMutability": "view",
      "type": "function"
    },
    {
      "inputs": [],
      "name": "feesEnabled",
      "outputs": [
        {
          "internalType": "bool",
          "name": "",
          "type": "bool"
        }
      ],
      "stateMutability": "view",
      "type": "function"
    },
    {
      "inputs": [
        {
          "internalType": "address",
          "name": "",
          "type": "address"
        },
        {
          "internalType": "address",
          "name": "",
          "type": "address"
        }
      ],
      "name": "isApprovedForAll",
      "outputs": [
        {
          "internalType": "bool",
          "name": "",
          "type": "bool"
        }
      ],
      "stateMutability": "view",
      "type": "function"
    },
    {
      "inputs": [
        {
          "internalType": "address",
          "name": "underlyingAsset",
          "type": "address"
        },
        {
          "internalType": "uint96",
          "name": "underlyingAmount",
          "type": "uint96"
        },
        {
          "internalType": "address",
          "name": "exerciseAsset",
          "type": "address"
        },
        {
          "internalType": "uint96",
          "name": "exerciseAmount",
          "type": "uint96"
        },
        {
          "internalType": "uint40",
          "name": "exerciseTimestamp",
          "type": "uint40"
        },
        {
          "internalType": "uint40",
          "name": "expiryTimestamp",
          "type": "uint40"
        }
      ],
      "name": "newOptionType",
      "outputs": [
        {
          "internalType": "uint256",
          "name": "optionId",
          "type": "uint256"
        }
      ],
      "stateMutability": "nonpayable",
      "type": "function"
    },
    {
      "inputs": [
        {
          "internalType": "uint256",
          "name": "tokenId",
          "type": "uint256"
        }
      ],
      "name": "option",
      "outputs": [
        {
          "components": [
            {
              "internalType": "address",
              "name": "underlyingAsset",
              "type": "address"
            },
            {
              "internalType": "uint96",
              "name": "underlyingAmount",
              "type": "uint96"
            },
            {
              "internalType": "address",
              "name": "exerciseAsset",
              "type": "address"
            },
            {
              "internalType": "uint96",
              "name": "exerciseAmount",
              "type": "uint96"
            },
            {
              "internalType": "uint40",
              "name": "exerciseTimestamp",
              "type": "uint40"
            },
            {
              "internalType": "uint40",
              "name": "expiryTimestamp",
              "type": "uint40"
            },
            {
              "internalType": "uint160",
              "name": "settlementSeed",
              "type": "uint160"
            },
            {
              "internalType": "uint96",
              "name": "nextClaimKey",
              "type": "uint96"
            }
          ],
          "internalType": "struct IOptionSettlementEngine.Option",
          "name": "optionInfo",
          "type": "tuple"
        }
      ],
      "stateMutability": "view",
      "type": "function"
    },
    {
      "inputs": [
        {
          "internalType": "uint256",
          "name": "tokenId",
          "type": "uint256"
        }
      ],
      "name": "position",
      "outputs": [
        {
          "components": [
            {
              "internalType": "address",
              "name": "underlyingAsset",
              "type": "address"
            },
            {
              "internalType": "int256",
              "name": "underlyingAmount",
              "type": "int256"
            },
            {
              "internalType": "address",
              "name": "exerciseAsset",
              "type": "address"
            },
            {
              "internalType": "int256",
              "name": "exerciseAmount",
              "type": "int256"
            }
          ],
          "internalType": "struct IOptionSettlementEngine.Position",
          "name": "positionInfo",
          "type": "tuple"
        }
      ],
      "stateMutability": "view",
      "type": "function"
    },
    {
      "inputs": [
        {
          "internalType": "uint256",
          "name": "claimId",
          "type": "uint256"
        }
      ],
      "name": "redeem",
      "outputs": [],
      "stateMutability": "nonpayable",
      "type": "function"
    },
    {
      "inputs": [
        {
          "internalType": "address",
          "name": "from",
          "type": "address"
        },
        {
          "internalType": "address",
          "name": "to",
          "type": "address"
        },
        {
          "internalType": "uint256[]",
          "name": "ids",
          "type": "uint256[]"
        },
        {
          "internalType": "uint256[]",
          "name": "amounts",
          "type": "uint256[]"
        },
        {
          "internalType": "bytes",
          "name": "data",
          "type": "bytes"
        }
      ],
      "name": "safeBatchTransferFrom",
      "outputs": [],
      "stateMutability": "nonpayable",
      "type": "function"
    },
    {
      "inputs": [
        {
          "internalType": "address",
          "name": "from",
          "type": "address"
        },
        {
          "internalType": "address",
          "name": "to",
          "type": "address"
        },
        {
          "internalType": "uint256",
          "name": "id",
          "type": "uint256"
        },
        {
          "internalType": "uint256",
          "name": "amount",
          "type": "uint256"
        },
        {
          "internalType": "bytes",
          "name": "data",
          "type": "bytes"
        }
      ],
      "name": "safeTransferFrom",
      "outputs": [],
      "stateMutability": "nonpayable",
      "type": "function"
    },
    {
      "inputs": [
        {
          "internalType": "address",
          "name": "operator",
          "type": "address"
        },
        {
          "internalType": "bool",
          "name": "approved",
          "type": "bool"
        }
      ],
      "name": "setApprovalForAll",
      "outputs": [],
      "stateMutability": "nonpayable",
      "type": "function"
    },
    {
      "inputs": [
        {
          "internalType": "address",
          "name": "newFeeTo",
          "type": "address"
        }
      ],
      "name": "setFeeTo",
      "outputs": [],
      "stateMutability": "nonpayable",
      "type": "function"
    },
    {
      "inputs": [
        {
          "internalType": "bool",
          "name": "enabled",
          "type": "bool"
        }
      ],
      "name": "setFeesEnabled",
      "outputs": [],
      "stateMutability": "nonpayable",
      "type": "function"
    },
    {
      "inputs": [
        {
          "internalType": "address",
          "name": "newTokenURIGenerator",
          "type": "address"
        }
      ],
      "name": "setTokenURIGenerator",
      "outputs": [],
      "stateMutability": "nonpayable",
      "type": "function"
    },
    {
      "inputs": [
        {
          "internalType": "bytes4",
          "name": "interfaceId",
          "type": "bytes4"
        }
      ],
      "name": "supportsInterface",
      "outputs": [
        {
          "internalType": "bool",
          "name": "",
          "type": "bool"
        }
      ],
      "stateMutability": "view",
      "type": "function"
    },
    {
      "inputs": [
        {
          "internalType": "address[]",
          "name": "tokens",
          "type": "address[]"
        }
      ],
      "name": "sweepFees",
      "outputs": [],
      "stateMutability": "nonpayable",
      "type": "function"
    },
    {
      "inputs": [
        {
          "internalType": "uint256",
          "name": "tokenId",
          "type": "uint256"
        }
      ],
      "name": "tokenType",
      "outputs": [
        {
          "internalType": "enum IOptionSettlementEngine.TokenType",
          "name": "typeOfToken",
          "type": "uint8"
        }
      ],
      "stateMutability": "view",
      "type": "function"
    },
    {
      "inputs": [],
      "name": "tokenURIGenerator",
      "outputs": [
        {
          "internalType": "contract ITokenURIGenerator",
          "name": "",
          "type": "address"
        }
      ],
      "stateMutability": "view",
      "type": "function"
    },
    {
      "inputs": [
        {
          "internalType": "uint256",
          "name": "tokenId",
          "type": "uint256"
        }
      ],
      "name": "uri",
      "outputs": [
        {
          "internalType": "string",
          "name": "",
          "type": "string"
        }
      ],
      "stateMutability": "view",
      "type": "function"
    },
    {
      "inputs": [
        {
          "internalType": "uint256",
          "name": "tokenId",
          "type": "uint256"
        },
        {
          "internalType": "uint112",
          "name": "amount",
          "type": "uint112"
        }
      ],
      "name": "write",
      "outputs": [
        {
          "internalType": "uint256",
          "name": "",
          "type": "uint256"
        }
      ],
      "stateMutability": "nonpayable",
      "type": "function"
    }
  ],
  "bytecode": {
    "object": "0x60a060405260056080523480156200001657600080fd5b5060405162003fee38038062003fee8339810160408190526200003991620000cc565b6001600160a01b03821615806200005757506001600160a01b038116155b156200007d57604051634726455360e11b81526000600482015260240160405180910390fd5b600580546001600160a01b039384166001600160a01b0319918216179091556006805492909316911617905562000104565b80516001600160a01b0381168114620000c757600080fd5b919050565b60008060408385031215620000e057600080fd5b620000eb83620000af565b9150620000fb60208401620000af565b90509250929050565b608051613ec76200012760003960008181610255015261272f0152613ec76000f3fe608060405234801561001057600080fd5b506004361061018d5760003560e01c8063a64e4f8a116100de578063e6c3b1f611610097578063f242432a11610071578063f242432a14610420578063f46901ed14610433578063f55e49b214610446578063f7a95a9e1461045957600080fd5b8063e6c3b1f6146103ca578063e985e9c5146103ea578063f1f5d0c31461041857600080fd5b8063a64e4f8a1461034a578063a901dd921461035e578063aa9ffa9314610371578063d6d859e914610384578063db006a7514610397578063e1f3962c146103aa57600080fd5b80632eb2c2d61161014b5780636448be8c116101255780636448be8c146102f1578063888fbf4314610311578063a143c66f14610324578063a22cb4651461033757600080fd5b80632eb2c2d614610289578063379607f51461029c5780634e1273f4146102d157600080fd5b8062fdd58e14610192578063017e7e58146101cd57806301ffc9a7146101f857806304e618ce1461021b5780630e89341c1461023057806324a9d85314610250575b600080fd5b6101ba6101a036600461321f565b600060208181529281526040808220909352908152205481565b6040519081526020015b60405180910390f35b6005546101e0906001600160a01b031681565b6040516001600160a01b0390911681526020016101c4565b61020b610206366004613262565b6104aa565b60405190151581526020016101c4565b61022e61022936600461327f565b6104fc565b005b61024361023e36600461329a565b6105b5565b6040516101c49190613303565b6102777f000000000000000000000000000000000000000000000000000000000000000081565b60405160ff90911681526020016101c4565b61022e6102973660046133a4565b61087a565b6102af6102aa36600461329a565b610afb565b60408051825181526020808401519082015291810151908201526060016101c4565b6102e46102df36600461345f565b610caf565b6040516101c49190613506565b6103046102ff36600461329a565b610dc2565b6040516101c49190613519565b6101ba61031f3660046135c5565b610edf565b6006546101e0906001600160a01b031681565b61022e610345366004613611565b6112e5565b60055461020b90600160a01b900460ff1681565b61022e61036c366004613644565b611351565b6101ba61037f36600461368b565b6113f8565b61022e6103923660046136ff565b611932565b61022e6103a536600461329a565b611a5a565b6101ba6103b836600461327f565b60046020526000908152604090205481565b6103dd6103d836600461329a565b611cf1565b6040516101c49190613779565b61020b6103f8366004613787565b600160209081526000928352604080842090915290825290205460ff1681565b61022e611d56565b61022e61042e3660046137b1565b611de0565b61022e61044136600461327f565b611fda565b61022e6104543660046135c5565b612066565b61046c61046736600461329a565b6122b7565b6040805182516001600160a01b03908116825260208085015190830152838301511691810191909152606091820151918101919091526080016101c4565b60006301ffc9a760e01b6001600160e01b0319831614806104db5750636cdb3d1360e11b6001600160e01b03198316145b806104f657506303a24d0760e21b6001600160e01b03198316145b92915050565b6005546001600160a01b0316331461054157600554604051630cfe98f760e01b81523360048201526001600160a01b0390911660248201526044015b60405180910390fd5b6001600160a01b03811661056b57604051634726455360e11b815260006004820152602401610538565b600680546001600160a01b0319166001600160a01b0383169081179091556040517fcc1c2a8facb923b39ebff8338454ef2ebf13e0d9f7e105ff75a48966340194f690600090a250565b606081811c600090815260026020818152604080842081516101008101835281546001600160a01b0381811683526001600160601b03600160a01b9283900481169684019690965260018401548082169584019590955293048416818801529381015464ffffffffff8082166080870152600160281b82041660a0860152600160501b900490911660c0840152600301541660e08201529061065684611cf1565b9050600081600281111561066c5761066c613741565b0361068d576040516306caeb1360e41b815260048101859052602401610538565b600060405180610120016040528084600001516001600160a01b0316815260200184600001516001600160a01b03166395d89b416040518163ffffffff1660e01b8152600401600060405180830381865afa1580156106f0573d6000803e3d6000fd5b505050506040513d6000823e601f3d908101601f19168201604052610718919081019061383f565b815260200184604001516001600160a01b0316815260200184604001516001600160a01b03166395d89b416040518163ffffffff1660e01b8152600401600060405180830381865afa158015610772573d6000803e3d6000fd5b505050506040513d6000823e601f3d908101601f1916820160405261079a919081019061383f565b8152602001846080015164ffffffffff1681526020018460a0015164ffffffffff16815260200184602001516001600160601b0316815260200184606001516001600160601b031681526020018360028111156107f9576107f9613741565b9052600654604051637557913b60e01b81529192506001600160a01b031690637557913b9061082c9084906004016138ec565b600060405180830381865afa158015610849573d6000803e3d6000fd5b505050506040513d6000823e601f3d908101601f19168201604052610871919081019061383f565b95945050505050565b8483146108995760405162461bcd60e51b8152600401610538906139d7565b336001600160a01b03891614806108d357506001600160a01b038816600090815260016020908152604080832033845290915290205460ff165b6109105760405162461bcd60e51b815260206004820152600e60248201526d1393d517d055551213d49256915160921b6044820152606401610538565b60008060005b878110156109cb5788888281811061093057610930613a00565b90506020020135925086868281811061094b5761094b613a00565b6001600160a01b038e1660009081526020818152604080832089845282528220805493909102949094013595508593925090610988908490613a2c565b90915550506001600160a01b038a16600090815260208181526040808320868452909152812080548492906109be908490613a3f565b9091555050600101610916565b50886001600160a01b03168a6001600160a01b0316336001600160a01b03167f4a39dc06d4c0dbc64b70af90fd698a233a518aa5d07e595d983b8c0526c8f7fb8b8b8b8b604051610a1f9493929190613a84565b60405180910390a46001600160a01b0389163b15610ac65760405163bc197c8160e01b808252906001600160a01b038b169063bc197c8190610a739033908f908e908e908e908e908e908e90600401613ad4565b6020604051808303816000875af1158015610a92573d6000803e3d6000fd5b505050506040513d601f19601f82011682018060405250810190610ab69190613b38565b6001600160e01b03191614610ad3565b6001600160a01b03891615155b610aef5760405162461bcd60e51b815260040161053890613b55565b50505050505050505050565b610b1f60405180606001604052806000815260200160008152602001600081525090565b606082901c6001600160601b038316610b3882826124dc565b610b58576040516306caeb1360e41b815260048101859052602401610538565b6001600160a01b03821660009081526002602090815260408083206001600160601b0385168452600681019092528220805483929190835b81811015610c62576000838281548110610bac57610bac613a00565b60009182526020822001805460048801805492945091600160701b9091046001600160601b0316908110610be257610be2613a00565b60009182526020909120835491019150610c05906001600160701b031689613a3f565b82548254919950610c4191610c2d916001600160701b0390811691600160701b900416613b7f565b82546001600160701b039182169116612514565b610c4b9088613a3f565b965050508080610c5a90613bae565b915050610b90565b50604051806060016040528086670de0b6b3a7640000610c829190613bc7565b8152602001858152602001606060ff16896001600160a01b0316901b815250975050505050505050919050565b6060838214610cd05760405162461bcd60e51b8152600401610538906139d7565b8367ffffffffffffffff811115610ce957610ce9613829565b604051908082528060200260200182016040528015610d12578160200160208202803683370190505b50905060005b84811015610db957600080878784818110610d3557610d35613a00565b9050602002016020810190610d4a919061327f565b6001600160a01b03166001600160a01b031681526020019081526020016000206000858584818110610d7e57610d7e613a00565b90506020020135815260200190815260200160002054828281518110610da657610da6613a00565b6020908102919091010152600101610d18565b50949350505050565b60408051610100810182526000808252602080830182905282840182905260608084018390526080840183905260a0840183905260c0840183905260e0840183905285901c8083526002909152929020549091906001600160a01b0316610e3f576040516306caeb1360e41b815260048101849052602401610538565b6001600160a01b03908116600090815260026020818152604092839020835161010081018552815480871682526001600160601b03600160a01b91829004811694830194909452600183015480881696830196909652909404821660608501529182015464ffffffffff8082166080860152600160281b82041660a0850152600160501b900490931660c08301526003015490911660e082015292915050565b6000816001600160701b0316600003610f0b5760405163b06c3d5560e01b815260040160405180910390fd5b606083901c60008181526002602081905260408220908101546001600160601b038716926001600160601b031988169291600160281b900464ffffffffff1690819003610f6e576040516324eb648960e01b815260048101849052602401610538565b428164ffffffffff1611610fa557604051639377432760e01b81526004810184905264ffffffffff82166024820152604401610538565b6000610fb18389612530565b8354909150600090610fd4908a90600160a01b90046001600160601b0316613b7f565b84546005546001600160701b039290921692506001600160a01b031690600090600160a01b900460ff16156110115761100e878385612723565b90505b876001600160601b03166000036111fc576003860180546000916001600160601b03909116908261104183613be6565b91906101000a8154816001600160601b0302191690836001600160601b03160217905550905061108c8a826001600160601b03166001600160601b031960609290921b919091161790565b6001600160a01b038b166000908152600260205260409020909d506110b39082878f6127e3565b6040516001600160701b038d1681528d9033908a907f64b996b55aa21c6915cb2fbdc6f619d5456d7ab76ac22242b0c8651a560c7abb9060200160405180910390a461110a8333306111058689613a3f565b612974565b604080516002808252606082018352600092602083019080368337019050509050888160008151811061113f5761113f613a00565b6020026020010181815250508d8160018151811061115f5761115f613a00565b6020908102919091010152604080516002808252606082019092526000918160200160208202803683370190505090508d6001600160701b0316816000815181106111ac576111ac613a00565b6020026020010181815250506001816001815181106111cd576111cd613a00565b6020026020010181815250506111f4338383604051806020016040528060008152506129fe565b5050506112d5565b336000908152602081815260408083208f845290915290205460018114611239576040516318c1b6e360e11b8152600481018e9052602401610538565b6001600160a01b038a16600090815260026020526040902061125d908a878f6127e3565b6040516001600160701b038d1681528d9033908a907f64b996b55aa21c6915cb2fbdc6f619d5456d7ab76ac22242b0c8651a560c7abb9060200160405180910390a46112af8333306111058689613a3f565b6112d333898e6001600160701b031660405180602001604052806000815250612bcb565b505b50999a9950505050505050505050565b3360008181526001602090815260408083206001600160a01b03871680855290835292819020805460ff191686151590811790915590519081529192917f17307eab39ab6107e8899845ad3d59bd9653f200f220920489ca2b5937696c31910160405180910390a35050565b6005546001600160a01b0316331461139157600554604051630cfe98f760e01b81523360048201526001600160a01b039091166024820152604401610538565b60058054821515600160a01b810260ff60a01b1983168117909355604080516001600160a01b039485169490931693909317825260208201527f96fbf5a8f3f0c618bcf274409014aca975bcc820a1ed78125a730bafd9a9704d910160405180910390a150565b604080516001600160a01b0380891660208301526001600160601b038089169383019390935286166060820152908416608082015264ffffffffff80841660a0830152821660c0820152600090819060e00160408051601f1981840301815291905280516020909101206001600160601b03198116925060601c9050611498816001600160a01b0390811660009081526002602052604090205416151590565b156114b9576040516309c383c560e41b815260048101839052602401610538565b6114c64262015180613a3f565b8364ffffffffff1610156114f65760405163060d0c4360e41b815264ffffffffff84166004820152602401610538565b6115038462015180613c0c565b64ffffffffff168364ffffffffff16101561153a57604051636f79dabb60e11b815264ffffffffff85166004820152602401610538565b876001600160a01b0316866001600160a01b03160361157f57604051630802474560e11b81526001600160a01b03808816600483015289166024820152604401610538565b60008890506000879050886001600160601b0316826001600160a01b03166318160ddd6040518163ffffffff1660e01b8152600401602060405180830381865afa1580156115d1573d6000803e3d6000fd5b505050506040513d601f19601f820116820180604052508101906115f59190613c2a565b108061166a5750866001600160601b0316816001600160a01b03166318160ddd6040518163ffffffff1660e01b8152600401602060405180830381865afa158015611644573d6000803e3d6000fd5b505050506040513d601f19601f820116820180604052508101906116689190613c2a565b105b1561169b57604051630802474560e11b81526001600160a01b03808c16600483015289166024820152604401610538565b6040518061010001604052808b6001600160a01b031681526020018a6001600160601b03168152602001896001600160a01b03168152602001886001600160601b031681526020018764ffffffffff1681526020018664ffffffffff168152602001846001600160a01b0316815260200160016001600160601b031681525060026000856001600160a01b03166001600160a01b0316815260200190815260200160002060000160008201518160000160006101000a8154816001600160a01b0302191690836001600160a01b0316021790555060208201518160000160146101000a8154816001600160601b0302191690836001600160601b0316021790555060408201518160010160006101000a8154816001600160a01b0302191690836001600160a01b0316021790555060608201518160010160146101000a8154816001600160601b0302191690836001600160601b0316021790555060808201518160020160006101000a81548164ffffffffff021916908364ffffffffff16021790555060a08201518160020160056101000a81548164ffffffffff021916908364ffffffffff16021790555060c082015181600201600a6101000a8154816001600160a01b0302191690836001600160a01b0316021790555060e08201518160030160006101000a8154816001600160601b0302191690836001600160601b031602179055509050508464ffffffffff168a6001600160a01b0316896001600160a01b03167f4da1232e91e9e12e1fcd6f97817ab15d2d20bdc3596fbfefc47b69ec4bcb3aeb878b8e8c60405161191d94939291909384526001600160601b0392831660208501529116604083015264ffffffffff16606082015260800190565b60405180910390a45050509695505050505050565b6005546001600160a01b0316331461197257600554604051630cfe98f760e01b81523360048201526001600160a01b039091166024820152604401610538565b6005546001600160a01b03166000808084815b81811015611a505787878281811061199f5761199f613a00565b90506020020160208101906119b4919061327f565b6001600160a01b03811660009081526004602052604090205490955093506001841115611a48576001600160a01b0380861660008181526004602052604090819020600190555160001987019550918816917fc0f93f8147d0fdac4c9b68e295a3c0ae16c7e8367c0cd576144326b25205dbf490611a359087815260200190565b60405180910390a3611a48858785612d0d565b600101611985565b5050505050505050565b606081901c6001600160601b0382166000819003611a8e576040516318c3d55d60e21b815260048101849052602401610538565b3360009081526020818152604080832086845290915290205460018114611acb576040516318c1b6e360e11b815260048101859052602401610538565b6001600160a01b03808416600090815260026020818152604092839020835161010081018552815480871682526001600160601b03600160a01b91829004811694830194909452600183015480881696830196909652909404821660608501529182015464ffffffffff8082166080860152600160281b82041660a08501819052600160501b90910490941660c084015260038201541660e083015291421015611b9e5760a0810151604051631887f3a760e01b81526004810188905264ffffffffff9091166024820152604401610538565b6001600160601b038085166000908152600684016020526040812080548554600187015492949193600160a01b91829004831693919091049091169080845b8015611c6157600080611bfd87878d8c611bf8600189613a2c565b612d85565b9092509050611c0c8286613a3f565b9450611c188185613a3f565b935088805480611c2a57611c2a613c43565b600082815260209020810160001990810180546001600160d01b031916905501905550819050611c5981613c59565b915050611bdd565b50604080518281526020810184905233916001600160601b031960608f901b16918f917fa3d8a607cd3c6b3ffa03a5117299750bca64916c2122f1efffb6bf643a35740f910160405180910390a4611cbb338d6001612e6f565b8015611cd057611cd087604001513383612d0d565b8115611ce3578651611ce3903384612d0d565b505050505050505050505050565b606081901c6000818152600260205260408120549091906001600160601b038416906001600160a01b031615611d4f576001600160601b038416600003611d3b5760019250611d4f565b611d4582826124dc565b15611d4f57600292505b5050919050565b6003546001600160a01b03163314611d9657600354604051630cfe98f760e01b81523360048201526001600160a01b039091166024820152604401610538565b60058054336001600160a01b031991821681179092556003805490911690556040517f9887df018dfa75103faf0f1388028e55a1124783c285d8d2cbcf62a067a6b84490600090a2565b336001600160a01b0387161480611e1a57506001600160a01b038616600090815260016020908152604080832033845290915290205460ff165b611e575760405162461bcd60e51b815260206004820152600e60248201526d1393d517d055551213d49256915160921b6044820152606401610538565b6001600160a01b03861660009081526020818152604080832087845290915281208054859290611e88908490613a2c565b90915550506001600160a01b03851660009081526020818152604080832087845290915281208054859290611ebe908490613a3f565b909155505060408051858152602081018590526001600160a01b03808816929089169133917fc3d58168c5ae7397731d063d5bbf3d657854427343f4c083240f7aacaa2d0f62910160405180910390a46001600160a01b0385163b15611fa95760405163f23a6e6160e01b808252906001600160a01b0387169063f23a6e6190611f569033908b908a908a908a908a90600401613c70565b6020604051808303816000875af1158015611f75573d6000803e3d6000fd5b505050506040513d601f19601f82011682018060405250810190611f999190613b38565b6001600160e01b03191614611fb6565b6001600160a01b03851615155b611fd25760405162461bcd60e51b815260040161053890613b55565b505050505050565b6005546001600160a01b0316331461201a57600554604051630cfe98f760e01b81523360048201526001600160a01b039091166024820152604401610538565b6001600160a01b03811661204457604051634726455360e11b815260006004820152602401610538565b600380546001600160a01b0319166001600160a01b0392909216919091179055565b606082901c6001600160601b0383168015612097576040516324eb648960e01b815260048101859052602401610538565b6001600160a01b038216600090815260026020819052604090912090810154819042600160281b90910464ffffffffff1611612102576002810154604051639377432760e01b815260048101889052600160281b90910464ffffffffff166024820152604401610538565b60028101544264ffffffffff90911611156121465760028101546040516315c7b46160e21b81526004810188905264ffffffffff9091166024820152604401610538565b336000908152602081815260408083208984529091529020546001600160701b038616111561219a5760405163a0e229ab60e01b8152600481018790526001600160701b0386166024820152604401610538565b60018101546000906121bd908790600160a01b90046001600160601b0316613b7f565b82546001600160701b039190911691506000906121eb908890600160a01b90046001600160601b0316613b7f565b600184015484546001600160701b039290921692506001600160a01b03908116911661221886868b612ef3565b600554600090600160a01b900460ff161561223b576122388b8487612723565b90505b6040516001600160701b038b16815233908c907ff6c60e0fc5385c6476a6ab1c19a57c2cf1dcd7634067c3dd0149a78ff5fd2b4d9060200160405180910390a361228f338c8c6001600160701b0316612e6f565b61229f833330611105858a613a3f565b6122aa823386612d0d565b5050505050505050505050565b60408051608081018252600080825260208201819052918101829052606080820183905290919083901c906001600160601b038416906122f685611cf1565b9050600081600281111561230c5761230c613741565b0361232d576040516306caeb1360e41b815260048101869052602401610538565b6001600160a01b0383166000908152600260205260409020600182600281111561235957612359613741565b036123ff576002810154600160281b900464ffffffffff164281116123a157604051639377432760e01b81526004810188905264ffffffffff82166024820152604401610538565b6040805160808101825283546001600160a01b0380821683526001600160601b03600160a01b9283900481166020850152600187015491821694840194909452919260608401926123f492900416613cb7565b8152509550506124d3565b6001600160a01b03841660009081526002602090815260408083206001600160601b038088168552600682019093529083208054825460018401548695600160a01b9283900481169290910416855b838110156124985760008061246685858a8a87612d85565b9092509050612475828b613a3f565b9950612481818a613a3f565b98505050808061249090613bae565b91505061244e565b50506040805160808101825288546001600160a01b039081168252602082019890985260018901549097169087015250505050606082015294505b50505050919050565b6001600160a01b03821660009081526002602090815260408083206001600160601b0385168452600601909152902054151592915050565b600061252983670de0b6b3a7640000846131e5565b9392505050565b6004820180546000919081908084036125e457604080518082019091526001600160701b0386811682526000602080840182815286546001808201895597845282842095519501805491519585166001600160e01b031990921691909117600160701b959094169490940292909217909255938301805480850182559082529390206002840401805493909216600c026101000a6001600160601b03818102199094169382160292909217905590506104f6565b60006125f1600183613cd3565b9050600083826001600160601b03168154811061261057612610613a00565b60009182526020909120018054909150600160701b90046001600160701b0316156126d257604080518082019091526001600160701b03808916825260006020808401828152885460018181018b558a8552838520965196909101805492518616600160701b026001600160e01b031990931696909516959095171790925587830180548085018255908252919020600282040180546001600160601b03808816600c94909516939093026101000a9384029290930219909216179055612717565b8054879082906000906126ef9084906001600160701b0316613cf3565b92506101000a8154816001600160701b0302191690836001600160701b031602179055508192505b50909695505050505050565b600061271061275560ff7f00000000000000000000000000000000000000000000000000000000000000001684613bc7565b61275f9190613d29565b90508060000361276d575060015b6001600160a01b03831660009081526004602052604081208054839290612795908490613a3f565b909155505060405181815233906001600160a01b0385169086907fab6412cc7c5e1894494776aefcca0d1eabe45c98c0a9a5318808ac7f9ebf39fa9060200160405180910390a49392505050565b6001600160601b03831660009081526006850160205260408120805490918190036128745750604080518082019091526001600160701b0380841682526001600160601b03808616602080850191825285546001810187556000968752952093519390940180549451909116600160701b026001600160d01b0319909416929091169190911791909117905561296e565b600082612882600184613a2c565b8154811061289257612892613a00565b600091825260209091200180549091506001600160601b03808716600160701b909204161015612929575050604080518082019091526001600160701b0380841682526001600160601b03808616602080850191825285546001810187556000968752952093519390940180549451909116600160701b026001600160d01b0319909416929091169190911791909117905561296e565b8054849082906000906129469084906001600160701b0316613cf3565b92506101000a8154816001600160701b0302191690836001600160701b031602179055505050505b50505050565b60006040516323b872dd60e01b81528460048201528360248201528260448201526020600060648360008a5af13d15601f3d11600160005114161716915050806129f75760405162461bcd60e51b81526020600482015260146024820152731514905394d1915497d19493d357d1905253115160621b6044820152606401610538565b5050505050565b825182518114612a205760405162461bcd60e51b8152600401610538906139d7565b60005b81811015612aaf57838181518110612a3d57612a3d613a00565b6020026020010151600080886001600160a01b03166001600160a01b031681526020019081526020016000206000878481518110612a7d57612a7d613a00565b602002602001015181526020019081526020016000206000828254612aa29190613a3f565b9091555050600101612a23565b50846001600160a01b031660006001600160a01b0316336001600160a01b03167f4a39dc06d4c0dbc64b70af90fd698a233a518aa5d07e595d983b8c0526c8f7fb8787604051612b00929190613d3d565b60405180910390a46001600160a01b0385163b15612ba25760405163bc197c8160e01b808252906001600160a01b0387169063bc197c8190612b4f9033906000908a908a908a90600401613d62565b6020604051808303816000875af1158015612b6e573d6000803e3d6000fd5b505050506040513d601f19601f82011682018060405250810190612b929190613b38565b6001600160e01b03191614612baf565b6001600160a01b03851615155b6129f75760405162461bcd60e51b815260040161053890613b55565b6001600160a01b03841660009081526020818152604080832086845290915281208054849290612bfc908490613a3f565b909155505060408051848152602081018490526001600160a01b0386169160009133917fc3d58168c5ae7397731d063d5bbf3d657854427343f4c083240f7aacaa2d0f62910160405180910390a46001600160a01b0384163b15612ce45760405163f23a6e6160e01b808252906001600160a01b0386169063f23a6e6190612c91903390600090899089908990600401613db4565b6020604051808303816000875af1158015612cb0573d6000803e3d6000fd5b505050506040513d601f19601f82011682018060405250810190612cd49190613b38565b6001600160e01b03191614612cf1565b6001600160a01b03841615155b61296e5760405162461bcd60e51b815260040161053890613b55565b600060405163a9059cbb60e01b8152836004820152826024820152602060006044836000895af13d15601f3d116001600051141617169150508061296e5760405162461bcd60e51b815260206004820152600f60248201526e1514905394d1915497d19052531151608a1b6044820152606401610538565b6000806000848481548110612d9c57612d9c613a00565b60009182526020822001805460048901805492945091600160701b9091046001600160601b0316908110612dd257612dd2613a00565b600091825260209091208354910180549092506001600160701b039182169181811691600160701b90041681838d612e0a8484613a2c565b612e149190613bc7565b612e1e9190613bc7565b612e289190613d29565b612e329088613a3f565b96508183612e408d84613bc7565b612e4a9190613bc7565b612e549190613d29565b612e5e9087613a3f565b955050505050509550959350505050565b6001600160a01b03831660009081526020818152604080832085845290915281208054839290612ea0908490613a2c565b909155505060408051838152602081018390526000916001600160a01b0386169133917fc3d58168c5ae7397731d063d5bbf3d657854427343f4c083240f7aacaa2d0f62910160405180910390a4505050565b600583018054600284015460048601929190600090612f2c906001600160601b03841690600160501b90046001600160a01b0316613dee565b90505b6001600160701b0385161561316b57600083826001600160601b031681548110612f5b57612f5b613a00565b9060005260206000209060029182820401919006600c029054906101000a90046001600160601b03169050600085826001600160601b031681548110612fa357612fa3613a00565b600091825260208220018054909250612fce906001600160701b03600160701b820481169116613e14565b90506000886001600160701b0316826001600160701b0316116130eb57612ff5828a613e14565b98508190508561300481613e34565b965050600087876001600160601b03168154811061302457613024613a00565b9060005260206000209060029182820401919006600c029054906101000a90046001600160601b031690508088876001600160601b03168154811061306b5761306b613a00565b9060005260206000209060029182820401919006600c026101000a8154816001600160601b0302191690836001600160601b03160217905550878054806130b4576130b4613c43565b60008281526020902060026000199092019182040180546001600160601b03600c60018516026101000a02191690559055506130f0565b506000975b825481908490600e90613114908490600160701b90046001600160701b0316613cf3565b92506101000a8154816001600160701b0302191690836001600160701b03160217905550886001600160701b03166000146131625785613155866001613e57565b61315f9190613e77565b94505b50505050612f2f565b600286015460408051600160501b9092046001600160a01b031660208301526001600160601b038316908201526060016040516020818303038152906040528051906020012060001c86600201600a6101000a8154816001600160a01b0302191690836001600160a01b0316021790555050505050505050565b60008260001904841183021582026131fc57600080fd5b5091020490565b80356001600160a01b038116811461321a57600080fd5b919050565b6000806040838503121561323257600080fd5b61323b83613203565b946020939093013593505050565b6001600160e01b03198116811461325f57600080fd5b50565b60006020828403121561327457600080fd5b813561252981613249565b60006020828403121561329157600080fd5b61252982613203565b6000602082840312156132ac57600080fd5b5035919050565b60005b838110156132ce5781810151838201526020016132b6565b50506000910152565b600081518084526132ef8160208601602086016132b3565b601f01601f19169290920160200192915050565b60208152600061252960208301846132d7565b60008083601f84011261332857600080fd5b50813567ffffffffffffffff81111561334057600080fd5b6020830191508360208260051b850101111561335b57600080fd5b9250929050565b60008083601f84011261337457600080fd5b50813567ffffffffffffffff81111561338c57600080fd5b60208301915083602082850101111561335b57600080fd5b60008060008060008060008060a0898b0312156133c057600080fd5b6133c989613203565b97506133d760208a01613203565b9650604089013567ffffffffffffffff808211156133f457600080fd5b6134008c838d01613316565b909850965060608b013591508082111561341957600080fd5b6134258c838d01613316565b909650945060808b013591508082111561343e57600080fd5b5061344b8b828c01613362565b999c989b5096995094979396929594505050565b6000806000806040858703121561347557600080fd5b843567ffffffffffffffff8082111561348d57600080fd5b61349988838901613316565b909650945060208701359150808211156134b257600080fd5b506134bf87828801613316565b95989497509550505050565b600081518084526020808501945080840160005b838110156134fb578151875295820195908201906001016134df565b509495945050505050565b60208152600061252960208301846134cb565b60006101008201905060018060a01b0380845116835260208401516001600160601b03808216602086015282604087015116604086015280606087015116606086015250505064ffffffffff608084015116608083015260a083015161358860a084018264ffffffffff169052565b5060c08301516135a360c08401826001600160a01b03169052565b5060e08301516135be60e08401826001600160601b03169052565b5092915050565b600080604083850312156135d857600080fd5b8235915060208301356001600160701b03811681146135f657600080fd5b809150509250929050565b8035801515811461321a57600080fd5b6000806040838503121561362457600080fd5b61362d83613203565b915061363b60208401613601565b90509250929050565b60006020828403121561365657600080fd5b61252982613601565b80356001600160601b038116811461321a57600080fd5b803564ffffffffff8116811461321a57600080fd5b60008060008060008060c087890312156136a457600080fd5b6136ad87613203565b95506136bb6020880161365f565b94506136c960408801613203565b93506136d76060880161365f565b92506136e560808801613676565b91506136f360a08801613676565b90509295509295509295565b6000806020838503121561371257600080fd5b823567ffffffffffffffff81111561372957600080fd5b61373585828601613316565b90969095509350505050565b634e487b7160e01b600052602160045260246000fd5b6003811061377557634e487b7160e01b600052602160045260246000fd5b9052565b602081016104f68284613757565b6000806040838503121561379a57600080fd5b6137a383613203565b915061363b60208401613203565b60008060008060008060a087890312156137ca57600080fd5b6137d387613203565b95506137e160208801613203565b94506040870135935060608701359250608087013567ffffffffffffffff81111561380b57600080fd5b61381789828a01613362565b979a9699509497509295939492505050565b634e487b7160e01b600052604160045260246000fd5b60006020828403121561385157600080fd5b815167ffffffffffffffff8082111561386957600080fd5b818401915084601f83011261387d57600080fd5b81518181111561388f5761388f613829565b604051601f8201601f19908116603f011681019083821181831017156138b7576138b7613829565b816040528281528760208487010111156138d057600080fd5b6138e18360208301602088016132b3565b979650505050505050565b602081526139066020820183516001600160a01b03169052565b600060208301516101208060408501526139246101408501836132d7565b9150604085015161394060608601826001600160a01b03169052565b506060850151848303601f1901608086015261395c83826132d7565b925050608085015161397760a086018264ffffffffff169052565b5060a085015164ffffffffff811660c08601525060c08501516001600160601b03811660e08601525060e08501516101006139bc818701836001600160601b03169052565b86015190506139cd85830182613757565b5090949350505050565b6020808252600f908201526e0988a9c8ea890be9a92a69a82a8869608b1b604082015260600190565b634e487b7160e01b600052603260045260246000fd5b634e487b7160e01b600052601160045260246000fd5b818103818111156104f6576104f6613a16565b808201808211156104f6576104f6613a16565b81835260006001600160fb1b03831115613a6b57600080fd5b8260051b80836020870137939093016020019392505050565b604081526000613a98604083018688613a52565b82810360208401526138e1818587613a52565b81835281816020850137506000828201602090810191909152601f909101601f19169091010190565b6001600160a01b0389811682528816602082015260a060408201819052600090613b01908301888a613a52565b8281036060840152613b14818789613a52565b90508281036080840152613b29818587613aab565b9b9a5050505050505050505050565b600060208284031215613b4a57600080fd5b815161252981613249565b60208082526010908201526f155394d0519157d49150d2541251539560821b604082015260600190565b60006001600160701b0380831681851681830481118215151615613ba557613ba5613a16565b02949350505050565b600060018201613bc057613bc0613a16565b5060010190565b6000816000190483118215151615613be157613be1613a16565b500290565b60006001600160601b03808316818103613c0257613c02613a16565b6001019392505050565b64ffffffffff8181168382160190808211156135be576135be613a16565b600060208284031215613c3c57600080fd5b5051919050565b634e487b7160e01b600052603160045260246000fd5b600081613c6857613c68613a16565b506000190190565b6001600160a01b03878116825286166020820152604081018590526060810184905260a060808201819052600090613cab9083018486613aab565b98975050505050505050565b6000600160ff1b8201613ccc57613ccc613a16565b5060000390565b6001600160601b038281168282160390808211156135be576135be613a16565b6001600160701b038181168382160190808211156135be576135be613a16565b634e487b7160e01b600052601260045260246000fd5b600082613d3857613d38613d13565b500490565b604081526000613d5060408301856134cb565b828103602084015261087181856134cb565b6001600160a01b0386811682528516602082015260a060408201819052600090613d8e908301866134cb565b8281036060840152613da081866134cb565b90508281036080840152613cab81856132d7565b6001600160a01b03868116825285166020820152604081018490526060810183905260a0608082018190526000906138e1908301846132d7565b60006001600160a01b0383811680613e0857613e08613d13565b92169190910692915050565b6001600160701b038281168282160390808211156135be576135be613a16565b60006001600160601b03821680613e4d57613e4d613a16565b6000190192915050565b6001600160601b038181168382160190808211156135be576135be613a16565b60006001600160601b0380841680613e0857613e08613d1356fea26469706673582212200e0b5810397c60c04ac8a4a6fbdad8e0fcb889c9a4ddd2a816ff67db1bd3fd7664736f6c63430008100033",
    "linkReferences": {}
  },
  "methodIdentifiers": {
    "acceptFeeTo()": "f1f5d0c3",
    "balanceOf(address,uint256)": "00fdd58e",
    "balanceOfBatch(address[],uint256[])": "4e1273f4",
    "claim(uint256)": "379607f5",
    "exercise(uint256,uint112)": "f55e49b2",
    "feeBalance(address)": "e1f3962c",
    "feeBps()": "24a9d853",
    "feeTo()": "017e7e58",
    "feesEnabled()": "a64e4f8a",
    "isApprovedForAll(address,address)": "e985e9c5",
    "newOptionType(address,uint96,address,uint96,uint40,uint40)": "aa9ffa93",
    "option(uint256)": "6448be8c",
    "position(uint256)": "f7a95a9e",
    "redeem(uint256)": "db006a75",
    "safeBatchTransferFrom(address,address,uint256[],uint256[],bytes)": "2eb2c2d6",
    "safeTransferFrom(address,address,uint256,uint256,bytes)": "f242432a",
    "setApprovalForAll(address,bool)": "a22cb465",
    "setFeeTo(address)": "f46901ed",
    "setFeesEnabled(bool)": "a901dd92",
    "setTokenURIGenerator(address)": "04e618ce",
    "supportsInterface(bytes4)": "01ffc9a7",
    "sweepFees(address[])": "d6d859e9",
    "tokenType(uint256)": "e6c3b1f6",
    "tokenURIGenerator()": "a143c66f",
    "uri(uint256)": "0e89341c",
    "write(uint256,uint112)": "888fbf43"
  },
  "id": 22
}